:060000000A128A11042817
:10000800BC01BD01BE01BF01C001C101C201C301E4
:10001800C4018313D830FD000A30FE00A530FF006C
:10002800A03084000A128A1529220A128A11303057
:10003800FD000A30FE001530FF00203084000A124F
:100048008A1529220A128A1183010A128A15C72DD4
:1000580083120313B0000030B1000030B200320840
:10006800803AFF0080307F02031D3C2808303102AF
:10007800031C3F2840284228A028A02800308312CB
:100088000313B3000030B4003408803AFF00803016
:100098007F02031D512808303302031C54285528B9
:1000A80057288A288A28831203133308F800780807
:1000B800F0003008F9007908F10031080A128A15B1
:1000C80080220A128A110030F3000030F20000305A
:1000D800F1003230F0000A128A15DD220A128A1164
:1000E800013083120313B3070318B40A0030B407AE
:1000F8003408803AFF0080307F02031D85280830CD
:100108003302031C8828892857288A28013083123B
:100118000313B1070318B20A0030B2073208803A55
:10012800FF0080307F02031D9B2808303102031C2A
:100138009E289F284228A02808000330F100700854
:1001480084007108831380000330F1007008013EB9
:100158008400710880000330F1007008023E8400BA
:1001680071088000FF30F1007008033E84007108B8
:100178008000FF30F1007008043E840071088000A0
:100188000330F1007008053E840071088000FF30DC
:10019800F1007008063E840071088000FF30F1000D
:1001A8007008073E840071088000FC2FFE30F100C3
:1001B80070088400710883138000FF30F100700814
:1001C800013E840071088000C330F1007008023ECF
:1001D800840071088000F330F1007008033E840049
:1001E80071088000F330F1007008043E8400710843
:1001F80080000330F1007008053E8400710880001B
:10020800FE30F1007008063E840071088000FC3062
:10021800F1007008073E840071088000FC2FC3308D
:10022800F10070088400710883138000C330F10066
:100238007008013E840071088000C330F100700826
:10024800023E840071088000FF30F1007008033E10
:10025800840071088000FF30F1007008043E8400BB
:1002680071088000C330F1007008053E84007108F1
:100278008000C330F1007008063E840071088000D9
:10028800C330F1007008073E840071088000FC2F1D
:10029800FF30F10070088400710883138000FF307C
:1002A800F1007008013E8400710880001830F100E8
:1002B8007008023E8400710880001830F100700850
:1002C800033E8400710880001830F1007008043E75
:1002D8008400710880001830F1007008053E840021
:1002E80071088000FF30F1007008063E8400710834
:1002F8008000FF30F1007008073E8400710880001C
:10030800FC2F1E30F10070088400710883138000F0
:100318003F30F1007008013E8400710880003330DE
:10032800F1007008023E8400710880003330F1004B
:100338007008033E8400710880003030F1007008B6
:10034800043E8400710880003030F1007008053EDA
:10035800840071088000FF30F1007008063E8400B8
:1003680071088000FF30F1007008073E84007108B2
:100378008000FC2FC330F1007008840071088313DB
:1003880080006330F1007008013E8400710880002D
:100398003330F1007008023E8400710880001F307D
:1003A800F1007008033E8400710880001F30F100DE
:1003B8007008043E8400710880003330F100700832
:1003C800053E8400710880006330F1007008063E25
:1003D800840071088000C330F1007008073E840073
:1003E80071088000FC2FFF30F1007008840071084C
:1003F80083138000FF30F1007008013E840071080B
:1004080080000330F1007008023E8400710880000B
:100418000330F1007008033E840071088000033047
:10042800F1007008043E8400710880000330F10078
:100438007008053E8400710880000330F1007008E0
:10044800063E8400710880000330F1007008073E02
:10045800840071088000FC2FC330F100700884000C
:10046800710883138000C330F1007008013E8400D6
:1004780071088000C330F1007008023E84007108E2
:100488008000C330F1007008033E840071088000CA
:10049800DB30F1007008043E840071088000FF30F2
:1004A800F1007008053E840071088000E730F10013
:1004B8007008063E840071088000C330F10070089F
:1004C800073E840071088000FC2FC330F1007008DB
:1004D8008400710883138000E330F1007008013E46
:1004E800840071088000F330F1007008023E840037
:1004F80071088000FB30F1007008033E8400710829
:100508008000DF30F1007008043E8400710880002C
:10051800CF30F1007008053E840071088000C730B4
:10052800F1007008063E840071088000C330F100B5
:100538007008073E840071088000FC2F3C30F100F1
:10054800700884007108831380007E30F100700801
:10055800013E840071088000C330F1007008023E3B
:10056800840071088000C330F1007008033E8400E5
:1005780071088000C330F1007008043E84007108DF
:100588008000C330F1007008053E840071088000C7
:100598007E30F1007008063E8400710880003C300F
:1005A800F1007008073E840071088000FC2F0330BA
:1005B800F100700884007108831380000330F10093
:1005C8007008013E8400710880007F30F1007008D7
:1005D800023E840071088000FF30F1007008033E7D
:1005E800840071088000C330F1007008043E840064
:1005F80071088000C330F1007008053E840071085E
:100608008000FF30F1007008063E84007108800009
:100618007F30F1007008073E840071088000FC2FCD
:10062800DE30F100700884007108831380007F3089
:10063800F1007008013E840071088000F330F10079
:100648007008023E840071088000DB30F1007008F9
:10065800033E840071088000C330F1007008043E36
:10066800840071088000C330F1007008053E8400E2
:10067800710880007E30F1007008063E8400710821
:1006880080003C30F1007008073E8400710880004B
:10069800FC2FC330F10070088400710883138000B8
:1006A800E330F1007008013E840071088000733067
:1006B800F1007008023E8400710880007F30F1006C
:1006C8007008033E840071088000FF30F100700854
:1006D800043E840071088000C330F1007008053EB4
:1006E800840071088000FF30F1007008063E840025
:1006F800710880007F30F1007008073E840071089F
:100708008000FC2FFF30F10070088400710883130B
:100718008000FF30F1007008013E840071088000FD
:10072800C030F1007008023E840071088000FF307C
:10073800F1007008033E840071088000FF30F1006A
:100748007008043E8400710880000330F1007008CE
:10075800053E840071088000FF30F1007008063EF5
:10076800840071088000FF30F1007008073E8400A3
:1007780071088000FC2F1830F1007008840071089F
:10078800831380001830F1007008013E840071085E
:1007980080001830F1007008023E84007108800063
:1007A8001830F1007008033E84007108800018308A
:1007B800F1007008043E8400710880001830F100D0
:1007C8007008053E840071088000FF30F100700851
:1007D800063E840071088000FF30F1007008073E73
:1007E800840071088000FC2F7E30F10070088400BE
:1007F800710883138000FF30F1007008013E840007
:1008080071088000C330F1007008023E840071084E
:100818008000C330F1007008033E84007108800036
:10082800C330F1007008043E840071088000C330B2
:10083800F1007008053E840071088000C330F100A3
:100848007008063E840071088000C330F10070080B
:10085800073E840071088000FC2F1830F1007008F2
:1008680084007108831380003C30F1007008013E59
:100878008400710880006630F1007008023E840030
:1008880071088000E730F1007008033E84007108A9
:100898008000C330F1007008043E840071088000B5
:1008A800C330F1007008053E840071088000C33031
:1008B800F1007008063E840071088000C330F10022
:1008C8007008073E840071088000FC2FC330F100D7
:1008D80070088400710883138000E730F100700805
:1008E800013E840071088000FF30F1007008023E6C
:1008F800840071088000DB30F1007008033E84003A
:1009080071088000C330F1007008043E840071084B
:100918008000C330F1007008053E84007108800033
:10092800C330F1007008063E840071088000C330AF
:10093800F1007008073E840071088000FC2FC33066
:10094800F10070088400710883138000C330F1003F
:100958007008013E8400710880006630F10070085C
:10096800023E8400710880003C30F1007008033EAC
:100978008400710880003C30F1007008043E840057
:10098800710880006630F1007008053E8400710827
:100998008000C330F1007008063E840071088000B2
:1009A800C330F1007008073E840071088000FC2FF6
:1009B8001830F10070088400710883138000183023
:1009C800F1007008013E8400710880001830F100C1
:1009D8007008023E8400710880001830F100700829
:1009E800033E8400710880003C30F1007008043E2A
:1009F8008400710880006630F1007008053E8400AC
:100A080071088000C330F1007008063E8400710848
:100A18008000C330F1007008073E84007108800030
:100A2800FC2FFF30F10070088400710883138000E8
:100A3800FF30F1007008013E8400710880000E301C
:100A4800F1007008023E8400710880001C30F1003B
:100A58007008033E8400710880003830F100700887
:100A6800043E8400710880007030F1007008053E73
:100A7800840071088000FF30F1007008063E840091
:100A880071088000FF30F1007008073E840071088B
:100A98008000FC2FFF30F100700884007108831378
:100AA8008000FF30F1007008013E8400710880006A
:100AB800C330F1007008023E840071088000C33022
:100AC800F1007008033E840071088000C330F10013
:100AD8007008043E840071088000C330F10070087B
:100AE800053E840071088000FF30F1007008063E62
:100AF800840071088000FF30F1007008073E840010
:100B080071088000FC2F1830F1007008840071080B
:100B1800831380001830F1007008013E84007108CA
:100B280080001830F1007008023E840071088000CF
:100B38001830F1007008033E8400710880001830F6
:100B4800F1007008043E8400710880001830F1003C
:100B58007008053E8400710880001830F1007008A4
:100B6800063E8400710880001830F1007008073EC6
:100B7800840071088000FC2FFF30F10070088400A9
:100B8800710883138000FF30F1007008013E840073
:100B9800710880000330F1007008023E840071087B
:100BA8008000FF30F1007008033E84007108800067
:100BB800FF30F1007008043E840071088000C030E6
:100BC800F1007008053E840071088000FF30F100D4
:100BD8007008063E840071088000FF30F10070083C
:100BE800073E840071088000FC2FFF30F100700878
:100BF8008400710883138000FF30F1007008013E03
:100C0800840071088000C030F1007008023E840042
:100C180071088000FF30F1007008033E84007108FD
:100C28008000FF30F1007008043E840071088000E5
:100C3800C030F1007008053E840071088000FF3064
:100C4800F1007008063E840071088000FF30F10052
:100C58007008073E840071088000FC2FC030F10046
:100C680070088400710883138000C030F100700898
:100C7800013E840071088000C030F1007008023E17
:100C8800840071088000FF30F1007008033E840082
:100C980071088000FF30F1007008043E840071087C
:100CA8008000C330F1007008053E840071088000A0
:100CB800C330F1007008063E840071088000C3301C
:100CC800F1007008073E840071088000FC2FFF3097
:100CD800F10070088400710883138000FF30F10070
:100CE8007008013E840071088000C030F10070086F
:100CF800023E840071088000FF30F1007008033E56
:100D0800840071088000FF30F1007008043E840000
:100D1800710880000330F1007008053E84007108F6
:100D28008000FF30F1007008063E840071088000E2
:100D3800FF30F1007008073E840071088000FC2F26
:100D4800FF30F10070088400710883138000FF30C1
:100D5800F1007008013E840071088000C330F10082
:100D68007008023E840071088000FF30F1007008AE
:100D7800033E840071088000FF30F1007008043ED3
:100D88008400710880000330F1007008053E84007B
:100D980071088000FF30F1007008063E8400710879
:100DA8008000FF30F1007008073E84007108800061
:100DB800FC2FC030F1007008840071088313800094
:100DC800C030F1007008013E840071088000C03016
:100DD800F1007008023E840071088000C030F10004
:100DE8007008033E840071088000C030F10070086C
:100DF800043E840071088000C030F1007008053E90
:100E0800840071088000FF30F1007008063E8400FD
:100E180071088000FF30F1007008073E84007108F7
:100E28008000FC2FFF30F1007008840071088313E4
:100E38008000FF30F1007008013E840071088000D6
:100E4800C330F1007008023E840071088000FF3052
:100E5800F1007008033E840071088000FF30F10043
:100E68007008043E840071088000C330F1007008E7
:100E7800053E840071088000FF30F1007008063ECE
:100E8800840071088000FF30F1007008073E84007C
:100E980071088000FC2FC030F100700884007108D0
:100EA80083138000C030F1007008013E840071088F
:100EB8008000C030F1007008023E84007108800094
:100EC800FF30F1007008033E840071088000FF3095
:100ED800F1007008043E840071088000C330F100FE
:100EE8007008053E840071088000FF30F10070082A
:100EF800063E840071088000FF30F1007008073E4C
:100F0800840071088000FC2FFC2FFC2F7208303AF7
:100F180003194E2D013A0319872D033A0319C02DE1
:100F2800013A0319F92D073A0319322E013A031928
:100F38006B2E033A0319A42E013A0319DD2E0F3A3A
:100F48000319162F013A03194F2F783A0A128A15F6
:100F58000319E12E033A03191C2F013A0319552FDF
:100F6800073A03198E2F0A128A11013A0319FD2F25
:100F7800033A0319A128013A0319DA280F3A031989
:100F88001329013A03194C29033A03198529013A0F
:100F98000319BE29073A0319F729013A0319302A18
:100FA800033A0319692A013A0319A22A1F3A0319B5
:100FB800DB2A013A0319142B033A03194D2B013A82
:100FC8000319862B073A0319BF2B013A0319F82B8B
:100FD800033A0319312C013A03196A2C0F3A031901
:100FE800A32C013A0319DC2C033A0319152DFC2F05
:100FF80008000A128A15C72F08308A000408840AD4
:101008008207003443345934543452344F344E3404
:021018000034A2
:10142A0018343C347E34FF34FF34FF34FF346634DE
:10143A001E343F347F34FE34FE347F343F341E344E
:10144A007E088A007F08820025220A128A158000F7
:10145A00840A04087D0603190034FF0A0319FE0AE8
:10146A00292A831603138501033086008701880120
:10147A008316031788018901831203139F018613B8
:10148A000613850187018801080083120313B1003E
:10149A003D30B0003008F00031080A128A15DD2606
:1014AA000A128A157D0883120313B0003008F80067
:1014BA003D300A128A1516230A128A150800F1000D
:1014CA00FF30831203138800F008031D6D2A6E2A69
:1014DA00732A87017108083885007F2A7008013A43
:1014EA00031D782A792A7F2A85017108083887001E
:1014FA007F2A7F2A0800F3000130F200700A872A47
:10150A000310F20DFF3E031D852A7208831203138E
:10151A008800F108031D922A932A982A87017308E2
:10152A0008388500A42A7108013A031D9D2A9E2ABB
:10153A00A42A8501730808388700A42AA42A080067
:10154A0000340034003400340034003403340334EB
:10155A0000340034003400340034073407340734CC
:10156A0000340034003400340F340F340F340F3495
:10157A000034003400341F341F341F341F341F3426
:10158A00003400343F343F343F343F343F343F3437
:10159A0000347F347F347F347F347F347F347F3428
:1015AA00FF34FF34FF34FF34FF34FF34FF34FF3499
:1015BA00E62A0730F5007D30F400F40BE22AF50B39
:1015CA00E22A0130F4000030F5000030F600003065
:1015DA00F7007408F0027508031C750FF52AF62A3D
:1015EA00F1027608031C760FFB2AFC2AF20277081E
:1015FA00031C770F012B022BF302FF307306031D26
:10160A00102BFF307206031D102BFF307106031DCD
:10161A00102BFF307006031D132B142BDE2A152BFB
:10162A000800FA000030FB000030FC007C08803A19
:10163A00FF0080307F02031D242B08307B02031C2D
:10164A00272B282B2A2B6D2B6D2B7B03FF3A073E6A
:10165A007A07F900790884008313000883120313B8
:10166A008800F808031D3A2B3B2B402B87017B0887
:10167A00083885004C2B7808013A031D452B462B68
:10168A004C2B85017B08083887004C2B4C2B0030EB
:10169A00F3000030F2000030F1000130F0000A12CD
:1016AA008A15DD220A128A150130FB070318FC0A83
:1016BA000030FC077C08803AFF0080307F02031D5F
:1016CA00682B08307B02031C6B2B6C2B2A2B6D2B8F
:1016DA000800FA000310003003180130F900013045
:1016EA00F7007A0A7A2B0310F70DFF3E031D782BB9
:1016FA0077088312031388000730FB000030FC00D0
:10170A00FC1F882B892B8B2BC62BC62B7408F70042
:10171A007B0A912B0310F70CFF3E031D8F2B7708D2
:10172A000139F8007808F9007908031D9D2BAC2BC4
:10173A007A08F7007708F0007608F8007808F100D0
:10174A007B080A128A1580220A128A15BB2B7A088C
:10175A00F7007708F0007508F8007808F1007B08B0
:10176A000A128A1580220A128A15BB2BFF30FB0740
:10177A000318FC0AFF30FC07FC1FC42BC52B8B2B5C
:10178A00C62B080083120313B4000030B5000030E2
:10179A00B600142C0030B7000030B8003808803A80
:1017AA00FF0080307F02031DDC2B32303702031C1E
:1017BA00DF2BE02BE22B0B2C0B2C831203133208AA
:1017CA00B3003308FD003508340784000A128A156D
:1017DA0000200A128A150A128A154A220A128A1542
:1017EA00013083120313B7070318B80A0030B80789
:1017FA003808803AFF0080307F02031D062C323001
:10180A003702031C092C0A2CE22B0B2C0130831201
:10181A000313B5070318B60A0030B607142C3508A7
:10182A00340784000A128A1500200A128A15003821
:10183A00031D202C212CCF2B222C0800F90000306C
:10184A00FA000030FB007B08803AFF0080307F02FC
:10185A00031D312C08307A02031C342C352C372C0A
:10186A00622C622C7908F8007808F0007A080A12CB
:10187A008A1564220A128A150030F3000030F20039
:10188A000030F1006430F0000A128A15DD220A12D3
:10189A008A150130FA070318FB0A0030FB077B0898
:1018AA00803AFF0080307F02031D5D2C08307A02E7
:1018BA00031C602C612C372C622C0730FC00003092
:1018CA00FD00FD1F692C6A2C6C2C8E2C8E2C79083D
:1018DA00F8007808F0007C080A128A1564220A12B5
:1018EA008A150030F3000030F2000030F100643055
:1018FA00F0000A128A15DD220A128A15FF30FC0747
:10190A000318FD0AFF30FD07FD1F8C2C8D2C6C2C53
:10191A008E2C080083120313B6000030B900003081
:10192A00BA003A08803AFF0080307F02031D9F2CDC
:10193A0008303902031CA22CA32CA52C002D002D43
:10194A00003083120313B7000030B8003808803A19
:10195A00FF0080307F02031DB42C05303702031CC0
:10196A00B72CB82CBA2CEA2CEA2C831203133908A8
:10197A003607B2003208840083130008B300330824
:10198A00F4003008B4003408F5003108B500350811
:10199A00F60039080A128A156E230A128A150130CE
:1019AA0083120313B7070318B80A0030B8073808B8
:1019BA00803AFF0080307F02031DE52C0530370294
:1019CA00031CE82CE92CBA2CEA2C013083120313ED
:1019DA00B9070318BA0A0030BA073A08803AFF0072
:1019EA0080307F02031DFB2C08303902031CFE2CB9
:1019FA00FF2CA52C002D080083120313B20000301F
:101A0A00B7000030B8003808803AFF0080307F0203
:101A1A00031D112D07303702031C142D152D172D08
:101A2A006E2D6E2D003083120313B3000030B40004
:101A3A003408803AFF0080307F02031D262D0530CE
:101A4A003302031C292D2A2D2C2D582D582D831293
:101A5A0003133208B0003008F8003708B10002302A
:101A6A000310B10DFF3E031D352D0310310DA03EAD
:101A7A000A128A1516230A128A15013083120313D1
:101A8A00B3070318B40A0030B4073408803AFF00D9
:101A9A0080307F02031D532D05303302031C562D5F
:101AAA00572D2C2D582D013083120313B707031815
:101ABA00B80A0030B8073808803AFF0080307F0241
:101ACA00031D692D07303702031C6C2D6D2D172D50
:101ADA006E2D063083120313B9000030BA00BA1F04
:101AEA00772D782D7A2DC62DC62D0030B500003001
:101AFA00B6003608803AFF0080307F02031D872D2A
:101B0A0005303502031C8A2D8B2D8D2DB92DB92D4B
:101B1A00831203133208B0003008F8003908B10004
:101B2A0002300310B10DFF3E031D962D0310310D37
:101B3A00A03E0A128A1516230A128A150130831248
:101B4A000313B5070318B60A0030B6073608803AF9
:101B5A00FF0080307F02031DB42D05303502031CBF
:101B6A00B72DB82D8D2DB92DFF3083120313B90768
:101B7A000318BA0AFF30BA07BA1FC42DC52D7A2D29
:101B8A00C62D08000A128A1536220A128A15592EFB
:101B9A000618D02DD12D402ED32DD32D061CD62D8F
:101BAA00D72DD32DD82D0130BB003B08BC070730F9
:101BBA003C02031CE12DE22D402E031000300318D5
:101BCA000130BC00402E402E402E03100030031876
:101BDA000130FD0030300A128A154A220A128A158B
:101BEA00592E0310003003180130FD0031300A125B
:101BFA008A154A220A128A15592E03100030031830
:101C0A000130FD0032300A128A154A220A128A1558
:101C1A00592E0310003003180130FD0033300A1228
:101C2A008A154A220A128A15592E031000300318FF
:101C3A000130FD0034300A128A154A220A128A1526
:101C4A00592E0310003003180130FD0035300A12F6
:101C5A008A154A220A128A15592E031000300318CF
:101C6A000130FD0036300A128A154A220A128A15F4
:101C7A00592E592E592E831203133C08003A031980
:101C8A00EA2D013A0319F62D033A0319022E013AF5
:101C9A0003190E2E073A03191A2E013A0319262E92
:101CAA00033A0319322E592E8312031386185E2E15
:101CBA005F2ECD2D612E612E861C642E652E612E1F
:101CCA00BF2EBF2EBF2E00300A128A112C200A12F4
:101CDA008A15BF2E00300A128A1523240A128A1581
:101CEA00BF2E0310003003180130F80020300A120A
:101CFA008A1516230A128A15BF2E031000300318FC
:101D0A000130F80020300A128A1516230A128A15A1
:101D1A00F8010314F80D20300A128A1516230A1244
:101D2A008A15BF2E83120313B0010314B00D0310DA
:101D3A00003003180130B10028300A128A158F24A6
:101D4A000A128A15BF2E03100030031801308312BD
:101D5A000313B20001300A128A15C7230A128A1520
:101D6A00BF2E00300A128A1501250A128A15BF2EC3
:101D7A00BF2EBF2E831203133C08003A0319682EA4
:101D8A00013A03196F2E033A0319762E013A031901
:101D9A00822E073A0319972E013A0319A82E033AFD
:101DAA000319B62EBF2EBF2EBF2E0A128A11002883
:101DBA00F2000A128A118A2FC330F10070088400D7
:101DCA00710883138000C330F1007008013E84005B
:101DDA0071088000FF30F1007008023E840071082B
:101DEA008000FF30F1007008033E84007108800013
:101DFA00C330F1007008043E840071088000E730A7
:101E0A00F1007008053E8400710880007E30F10000
:101E1A007008063E8400710880003C30F1007008AA
:101E2A00073E8400710880000A128A11FC2F3F3095
:101E3A00F10070088400710883138000FF30F100FC
:101E4A007008013E840071088000C330F1007008F8
:101E5A00023E840071088000FF30F1007008033EE2
:101E6A00840071088000FF30F1007008043E84008D
:101E7A0071088000C330F1007008053E84007108C3
:101E8A008000FF30F1007008063E8400710880006F
:101E9A003F30F1007008073E840071088000192F56
:101EAA00FF30F10070088400710883138000FF304E
:101EBA00F1007008013E8400710880000330F100CF
:101ECA007008023E8400710880000330F100700837
:101EDA00033E8400710880000330F1007008043E5C
:101EEA008400710880000330F1007008053E840008
:101EFA0071088000FF30F1007008063E8400710806
:101F0A008000FF30F1007008073E840071088000ED
:101F1A00192F3F30F1007008840071088313800084
:101F2A007F30F1007008013E840071088000C330E0
:101F3A00F1007008023E840071088000C330F1008D
:101F4A007008033E840071088000C330F1007008F5
:101F5A00043E840071088000C330F1007008053E19
:101F6A008400710880007F30F1007008063E84000A
:101F7A00710880003F30F1007008073E8400710844
:101F8A008000192FFF30F100700884007108831354
:101F9A008000FF30F1007008013E84007108800063
:101FAA000330F1007008023E840071088000FF309F
:101FBA00F1007008033E840071088000FF30F100D0
:101FCA007008043E8400710880000330F100700834
:101FDA00053E840071088000FF30F1007008063E5B
:101FEA00840071088000FF30F1007008073E840009
:061FFA0071088000192FA0
:02400E00E22CA2
:00000001FF
